:020000040000FA
:020000000328D3
:040002000034003492
:0A00060083160317880189018B019E
:100010008316031374308F00831603133F3085005B
:10002000FF30860080308700FF3088000330890071
:1000300083120313850186018701880189018316D4
:100040000313243098008312031390309800831612
:10005000031333309900831203130608AC00A70082
:100060000808AE00A90009080339AF00AA00B001D2
:100070003D20502064207F2038280608AC00270649
:1000800003190800A2002C05031D08002121060801
:100090002C02031D080079202508A3008A200800EF
:1000A0000808AE00290603190800A2002E05031D4A
:1000B0000800212108082E02031D080079200830BD
:1000C0002507A3008A20080009080339AF002A0683
:1000D00003190800A2002F05031D080021210908AB
:1000E00003392F02031D080079202508A300EB2007
:1000F0000800A50122180800A20CA50A7A282B08DE
:10010000A6002C08A7002D08A8002E08A9002F087B
:10011000AA0008000030300203199A2823080E2193
:100120001B210A301B21B00A04303002031D0800D5
:10013000B001080055301B2105083F39AB002B1CCE
:10014000B928AB1CC7282B1DCA28AB1DCD282B1ED8
:10015000D028AB1ED32830301B2133301B21303048
:100160001B2123080E211B210A301B210330B00064
:10017000080030301B2130301B2130301B21230878
:100180000E211B210A301B210330B0000800303043
:100190001B21E32831301B21E32832301B21E328C7
:1001A00033301B21E32845301B2123080E211B215E
:1001B0000A301B212308073C031CE1280130B00052
:1001C0000800B001080023080E211B210A301B2162
:1001D0000130B0000800A308031DFE2855301B2184
:1001E00030301B2130301B2130301B2130301B219F
:1001F00038301B210A301B21B001080055301B216B
:1002000030301B2130301B2130301B2130301B217E
:1002100041301B210A301B21B00108000F39B60004
:10022000093C031C16293030360408000930B60298
:10023000403036040800831203130C1E1D29990058
:1002400008006430B700C830B80000000000B80BE8
:080250002529B70B2329080042
:02400E00C427C5
:02401000FF3F70
:00000001FF
