:020000040000FA
:020000000328D3
:040002000034003492
:0A00060083160317880189018B019E
:100010008316031374308F00831603133F3085005B
:10002000FF30860080308700FF3088000330890071
:1000300083120313850186018701880189018316D4
:100040000313243098008312031390309800831612
:10005000031333309900831203130608AC00A70082
:100060000808AE00A90009080339AF00AA00B001D2
:100070003D20502064207F2038280608AC00270649
:1000800003190800A2002C05031D0800142106080E
:100090002C02031D080079202508A3008A200800EF
:1000A0000808AE00290603190800A2002E05031D4A
:1000B0000800142108082E02031D080079200830CA
:1000C0002507A3008A20080009080339AF002A0683
:1000D00003190800A2002F05031D080014210908B8
:1000E00003392F02031D080079202508A300DE2014
:1000F0000800A50122180800A20CA50A7A282B08DE
:10010000A6002C08A7002D08A8002E08A9002F087B
:10011000AA0008000030300203199A2823080121A0
:100120000E210A300E21B00A04303002031D0800EF
:10013000B001080055300E2105083F39AB002B1CDB
:10014000B928AB1CC7282B1DCA28AB1DCD282B1ED8
:10015000D028AB1ED32830300E2133300E21303062
:100160000E21230801210E210A300E210330B00098
:10017000080030300E2130300E2130300E2123089F
:1001800001210E210A300E210330B000080030306A
:100190000E21D62831300E21D62832300E21D62815
:1001A00033300E21D62845300E21D62823080121D0
:1001B0000E210A300E210130B0000800A308031DF3
:1001C000F12855300E2130300E2130300E213030E4
:1001D0000E2130300E2138300E210A300E21B001B0
:1001E000080055300E2130300E2130300E213030D5
:1001F0000E2130300E2141300E210A300E21B00187
:1002000008000F39B600093C031C092930303604B8
:1002100008000930B6024030360408008312031388
:100220000C1E1029990008006430B700C830B800CF
:0E02300000000000B80B1829B70B16290800B3
:02400E00C427C5
:02401000FF3F70
:00000001FF
