:020000040000FA
:020000000328D3
:040002000034003492
:0A00060083160317880189018B019E
:100010008316031374308F00831603133F3085005B
:10002000FF30860080308700FF3088000330890071
:1000300083120313850186018701880189018316D4
:100040000313243098008312031390309800831612
:10005000031333309900831203130608AC00A70082
:100060000808AE00A900B00138204B2065203428D4
:100070000608AC00270603190800A2002C05031D82
:100080000800D52006082C02031D08005F20250863
:10009000A3006E2008000808AE0029060319080016
:1000A000A2002E05031D0800D52008082E02031DFE
:1000B00008005F2008302507A3006E200800A50176
:1000C00022180800A20CA50A60282B08A6002C08FC
:1000D000A7002D08A8002E08A90008000030300253
:1000E00003197E282308C220CF200A30CF20B00A6F
:1000F00004303002031D0800B00108005530CF2045
:1001000005083F39AB002B1C9D28AB1CAB282B1DD1
:10011000AE28AB1DB1282B1EB428AB1EB72830303B
:10012000CF203330CF203030CF202308C220CF2043
:100130000A30CF200330B00008003030CF203030FC
:10014000CF203030CF202308C220CF200A30CF204C
:100150000330B00008003030CF20BA283130CF2033
:10016000BA283230CF20BA283330CF20BA284530D1
:10017000CF20BA282308C220CF200A30CF20013058
:10018000B00008000F39B600093C031CCA28303003
:10019000360408000930B6024030360408008312E5
:1001A00003130C1ED128990008006430B700C83032
:1001B000B80000000000B80BD928B70BD7280800FA
:02400E00C427C5
:02401000FF3F70
:00000001FF
