:020000040000FA
:020000000328D3
:040002000034003492
:0A00060083160317880189018B019E
:100010008316031374308F00831603133F3085005B
:10002000FF30860080308700FF3088000330890071
:1000300083120313850186018701880189018316D4
:100040000313243098008312031390309800831612
:10005000031333309900831203130608AC00A70082
:100060000808AE00A90037204B205220332806088C
:10007000AC00270603190800A2002C05031D080088
:10008000612006082C02031D08004C203030250496
:10009000A3005B2008000800A50122180800A20C9C
:1000A000A50A4D282B08A6002C08A7002D08A8009B
:1000B0002E08A9000800831203130C1E5D28990066
:1000C00008006430B000C830B10000000000B10B7F
:0800D0006528B00B632808004D
:02400E00C427C5
:02401000FF3F70
:00000001FF
