:020000040000FA
:020000000328D3
:040002000034003492
:0A00060083160317880189018B019E
:100010008316031374308F00831603133F3085005B
:10002000FF30860080308700FF3088000330890071
:1000300083120313850186018701880189018316D4
:100040000313243098008312031390309800831612
:10005000031333309900831203130608AC00A70082
:100060000808AE00A90037204B2065203328060879
:10007000AC00270603190800A2002C05031D080088
:10008000742006082C02031D08005F203030250470
:10009000A3006E2008000808AE0029060319080016
:1000A000A2002E05031D0800742008082E02031D5F
:1000B00008005F2030302504A3006E200800A50151
:1000C00022180800A20CA50A60282B08A6002C08FC
:1000D000A7002D08A8002E08A9000800831203130A
:1000E0000C1E7028990008006430B000C830B100C0
:0E00F00000000000B10B7828B00B7628080045
:02400E00C427C5
:02401000FF3F70
:00000001FF
