:020000040000FA
:020000000328D3
:040002000034003492
:0A00060083160317880189018B019E
:100010008316031374308F00831603133F3085005B
:10002000FF30860080308700FF3088000330890071
:1000300083120313850186018701880189018316D4
:100040000313243098008312031390309800831612
:10005000031333309900831203130608AC00A70082
:100060000808AE00A900B00138204B2065203428D4
:100070000608AC00270603190800A2002C05031D82
:100080000800CD2006082C02031D08005F2025086B
:10009000A3006E2008000808AE0029060319080016
:1000A000A2002E05031D0800CD2008082E02031D06
:1000B00008005F2008302507A3006E200800A50176
:1000C00022180800A20CA50A60282B08A6002C08FC
:1000D000A7002D08A8002E08A90008000030300253
:1000E00003197C282308BA20C720B00A0430300244
:1000F000031D0800B00108005530C72005083F392E
:10010000AB002B1C9928AB1CA5282B1DA828AB1DC8
:10011000AB282B1EAE28AB1EB1283030C7203330A1
:10012000C7203030C7202308BA20C7200330B000D2
:1001300008003030C7203030C7203030C7202308B7
:10014000BA20C7200330B00008003030C720B428E0
:100150003130C720B4283230C720B4283330C7200C
:10016000B4284530C720B4282308BA20C72001305E
:10017000B00008000F39B600093C031CC22830301B
:10018000360408000930B6024030360408008312F5
:1001900003130C1EC928990008006430B700C8304A
:1001A000B80000000000B80BD128B70BCF2808001A
:02400E00C427C5
:02401000FF3F70
:00000001FF
