:020000040000FA
:020000000328D3
:040002000034003492
:0A0006008316031783160317880101
:1000100089018B01031374308F00831603133F3063
:100020008500FF30860080308700FF308800033075
:1000300089008312031385018601870188018901E4
:1000400083160313243098009030980033309900C1
:100050000608AC00A7000808AE00A9003220402026
:1000600047202E280608AC002706031D0800A20022
:100070002C050319080041202508A3005020080082
:100080000800A50122180800A20CA50A42282B0886
:10009000A6002C08A7002D08A8002E08A90008001B
:0C00A00083120313981C522899000800DA
:02400E00C427C5
:02401000FF3F70
:00000001FF
